:03000000020030CB
:03000B000201846B
:100030007580FFD29574381150115D740E115011F6
:100040005D74011150115D74801150115D020062E8
:10005000F5A0C2B1C2B0D2B2115DC2B2227BFFDB49
:10006000FE22742011E9115D745011E9115D745282
:1000700011E9115D744F11E9115D744A11E9115DC7
:10008000744511E9115D744311E9115D745411E96E
:10009000115D11F674011150115D742011E9115DAB
:1000A00011E9115D745411E9115D744511E9115D97
:1000B000744D11E9115D745011E9115D744511E938
:1000C000115D745211E9115D744111E9115D7454AF
:1000D00011E9115D745511E9115D745211E9115D59
:1000E000744511E9115D020105F5A0D2B1C2B0D28B
:1000F000B2115DC2B2227BFF7DFF75752FD575FDF4
:10010000DDF8DBF422D2B5D2B3C2B4D2B420B5FD4F
:10011000C2B374C11150115D75890275A882A9809E
:10012000E9FC3130EC12015E12017311F60200306D
:10013000C3B92300500BC3B91900500AC28C020185
:1001400048314A0201483154C322C28C7AAA758CC4
:0E015000FFD28C22C28C7AAA758C1FD28C2210
:10015E0075F00A84AFF075F00A84AEF0EE2430FE2E
:10016E00EF2430FF22EE11E9115DEF11E9115D74FC
:10017E004311E9115D22B295C28C8A76D576FDD2F5
:04018E008CB2953268
:00000001FF
